:020000040000FA
:100000000C9462000C948A000C948A000C948A0070
:100010000C948A000C948A000C948A000C948A0038
:100020000C948A000C948A000C948A000C948A0028
:100030000C948A000C948A000C948A000C948A0018
:100040000C943A060C948A000C94AA060C9484062C
:100050000C948A000C948A000C948A000C948A00F8
:100060000C948A000C948A000000000024002700F1
:100070002A0000000000250028002B0000000008D6
:10008000000201000003040700000000000000005F
:1000900000000000230026002900040404040404D6
:1000A0000404020202020202030303030303010227
:1000B00004081020408001020408102001020408F6
:1000C0001020DC0611241FBECFEFD8E0DEBFCDBF6D
:1000D00011E0A0E0B1E0ECE3F7E102C005900D9281
:1000E000A635B107D9F722E0A6E5B1E001C01D921F
:1000F000A732B207E1F710E0C2E6D0E004C02197D2
:10010000FE010E94960BC136D107C9F70E9448072D
:100110000C949C0B0C940000CF92DF92EF92FF9214
:10012000CF93DF93B0910302A0E08111AB2F8091B8
:10013000040290E0880F991FAC0140575F4FC090B8
:100140000902D0900A02E0900B02F0900C0230E01D
:1001500020E0FA01C591D491E881B90190E080E0F6
:10016000EB23EA130AC02F5F3F4F6C157D058E0508
:100170009F0578F36FEF7FEFCB01DF91CF91FF9079
:10018000EF90DF90CF900895FC01538D448D252F83
:1001900030E0842F90E0821B930B541710F0CF9621
:1001A000089501970895FC01918D828D981761F053
:1001B000A28DAE0FBF2FB11D5D968C91928D9F5F6A
:1001C0009F73928F90E008958FEF9FEF0895FC0149
:1001D000918D828D981731F0828DE80FF11D858DFC
:1001E00090E008958FEF9FEF0895FC01918D228D8F
:1001F000892F90E0805C9F4F821B91098F73992714
:100200000895FC01A48DA80FB92FB11DA35ABF4FAB
:100210002C91848D90E001968F739927848FA68905
:10022000B7892C93A089B1898C91837080648C9359
:10023000938D848D981306C00288F389E02D808108
:100240008F7D80830895EF92FF920F931F93CF933A
:10025000DF93EC0181E0888F9B8D8C8D98131AC001
:10026000E889F989808185FF15C09FB7F894EE89E8
:10027000FF896083E889F989808183708064808345
:100280009FBF81E090E0DF91CF911F910F91FF9090
:10029000EF900895F62E0B8D10E00F5F1F4F0F7338
:1002A0001127E02E8C8D8E110CC00FB607FCFACFF3
:1002B000E889F989808185FFF5CFCE010E9401018F
:1002C000F1CFEB8DEC0FFD2FF11DE35AFF4FF082C4
:1002D0009FB7F8940B8FEA89FB8980818062CFCF2A
:1002E000CF93DF93EC01888D8823B9F0AA89BB896D
:1002F000E889F9898C9185FD03C0808186FD0DC058
:100300000FB607FCF7CF8C9185FFF2CF808185FF78
:10031000EDCFCE010E940101E9CFDF91CF91089589
:100320008FE591E00E94F50021E0892B09F420E09F
:10033000822F089580E090E0892B29F00E9490019F
:1003400081110C9400000895833081F028F48130ED
:1003500099F08230A9F008958730A9F08830C9F06B
:100360008430B1F4809180008F7D03C08091800043
:100370008F7780938000089584B58F7784BD08952A
:1003800084B58F7DFBCF8091B0008F778093B000D4
:1003900008958091B0008F7DF9CF1F93CF93DF93A5
:1003A000282F30E0F901E458FF4F8491F901E2551C
:1003B000FF4FD491F901E656FF4FC491CC23A9F029
:1003C000162F81110E94A401EC2FF0E0EE0FFF1F09
:1003D000EE58FF4FA591B4918FB7F894EC9111119D
:1003E00008C0D095DE23DC938FBFDF91CF911F91A2
:1003F0000895DE2BF8CFCF93DF9390E0FC01E25518
:10040000FF4F249186569F4FFC0184918823D1F0A1
:1004100090E0880F991FFC01E859FF4FA591B49116
:10042000FC01EE58FF4FC591D491623071F49FB733
:10043000F8943C91822F809583238C93E8812E2B16
:1004400028839FBFDF91CF9108958FB7F894EC91E7
:100450002E2B2C938FBFF6CF3FB7F8948091570186
:1004600090915801A0915901B0915A0126B5A89BCD
:1004700005C02F3F19F00196A11DB11D3FBFBA2F36
:10048000A92F982F8827BC01CD01620F711D811DF6
:10049000911D42E0660F771F881F991F4A95D1F77B
:1004A00008958F929F92AF92BF92CF92DF92EF9278
:1004B000FF924B015C010E942C026B017C010E94A7
:1004C0002C026C197D098E099F09683E73408105D5
:1004D0009105A8F321E0821A9108A108B10888EEDD
:1004E000C80E83E0D81EE11CF11C81149104A10404
:1004F000B10429F7FF90EF90DF90CF90BF90AF90BD
:100500009F908F900895CF92DF92EF92FF920F937A
:100510001F93CF93DF93CDB7DEB7C054D1400FB652
:10052000F894DEBF0FBECDBF2FB7F89480915B016A
:1005300090915C01A0915D01B0915E012FBF40914F
:1005400005025091060260910702709108028C0129
:100550009D01041B150B260B370BB901A801403D6B
:1005600057406105710590F480910D02C05CDE4F2B
:100570000FB6F894DEBF0FBECDBFDF91CF911F91B4
:100580000F91FF90EF90DF90CF9008958093050238
:1005900090930602A0930702B09308021092000203
:1005A0001092FF011092FE011092FD011092FC01C9
:1005B00062E0809101020E94FB0161E070E080E056
:1005C00090E00E94510261E0809101020E94FB01D3
:1005D00060E0809101020E94CD018091020285516C
:1005E000823020F58BE291E10197F1F762E0809192
:1005F00001020E94FB0180910E0290E08230910581
:1006000038F0880F991F880F991F05970197F1F708
:10061000F89480E00E948C006F3F7F4F8F4F9F4F78
:1006200061F410920D02789480E0A0CF64E170E054
:1006300080E090E00E945102D9CF81E00E948C00BE
:100640006F3F7F4F8F4F9F4F61F38E010F5F1F4FA3
:100650006E018FEBC81A8EEFD80A780180E00E94F5
:100660008C00F701608371838283938381E00E9411
:100670008C00F7016483758386839783F8E0EF0E1F
:10068000F11CEC14FD0451F7789430E020E0F801FF
:10069000C080D180E280F38044815581668177817A
:1006A000FFEFCF16DF06EF06FF0631F04F3F8FEF6B
:1006B00058076807780719F410920D02B5CFF901B1
:1006C00083E0F595E7958A95E1F7E450FE4F808148
:1006D000880FC416D506E606F70610F180832F5F53
:1006E0003F4F085F1F4F2832310589F640910002C5
:1006F0002091FC018091FD01280F3327331F809149
:10070000FE01280F311D8091FF01820F932F911D53
:1007100099274817190681F681E080930D0226CFAC
:100720008160DCCFAF92BF92CF92DF92EF92FF92C7
:100730000F931F93CF93DF936C017B018B01040F09
:10074000151FEB015E01AE18BF08C017D10759F0A5
:100750006991D601ED91FC910190F081E02DC601E7
:100760000995892B79F7C501DF91CF911F910F91E1
:10077000FF90EF90DF90CF90BF90AF9008950895D5
:1007800090E080E00895FC0101900020E9F73197A6
:10079000AF01481B590BBC018FE092E00C9492030F
:1007A0008F929F92AF92BF920F931F93CF93DF933D
:1007B000CDB7DEB7A1970FB6F894DEBF0FBECDBFA1
:1007C00019A2423008F44AE08E010F5D1F4F842EBB
:1007D000912CB12CA12CA50194010E94740BE62F41
:1007E000B901CA01EA30F4F4E05DD801EE938D015D
:1007F000232B242B252B79F790E080E0109719F01C
:10080000CD010E94C303A1960FB6F894DEBF0FBEC0
:10081000CDBFDF91CF911F910F91BF90AF909F906F
:100820008F900895E95CE1CFCF93DF93EC0160E016
:100830008E810E94CD0161E08E810E94CD0160E039
:100840008E810E94CD018BE891E00197F1F7DF9155
:10085000CF910895CF92DF92EF92FF920F931F9363
:10086000CF93DF936C017C0187E0E80EF11CD0E0B0
:10087000C0E0062F10E0B8010C2E02C075956795F8
:100880000A94E2F76170F70181917F010E94CD0126
:100890002196C430D10579F7C601DF91CF911F9120
:1008A0000F91FF90EF90DF90CF900C941404CF92B3
:1008B000DF92EF92FF920F931F93CF93DF93EC01A0
:1008C000F62E642F8C810E94CD018D818F3F19F00F
:1008D00060E00E94CD010F2D10E08F8584FF25C0C0
:1008E0006E0187E0C80ED11CF12CE12CB8010E2C52
:1008F00002C0759567950A94E2F76170F6018191DF
:100900006F010E94CD01FFEFEF1AFF0A88E0E816A1
:10091000F10461F7CE01DF91CF911F910F91FF900C
:10092000EF90DF90CF900C941404B80184E075959B
:1009300067958A95E1F7CE010E942A046F2DCE01BA
:10094000DF91CF911F910F91FF90EF90DF90CF90AB
:100950000C942A0440E0682F8FE092E00C94570436
:10096000CF93DF93823029F490911E029860909388
:100970001E02809322021092230280E480932402BC
:1009800080E18093250280E58093260261E08091DA
:1009900013020E94FB01809114028F3F19F061E065
:1009A0000E94FB0161E0809115020E94FB01CFE0F3
:1009B000D2E09E012F50324080911E0284FD0BC078
:1009C00084E090E021962817390744F461E08E8195
:1009D0000E94FB01EECF88E090E0F4CF8BE39DE036
:1009E0000197F1F760E0809113020E94CD0160E071
:1009F000809115020E94CD01809114028F3F19F061
:100A000060E00E94CD0180911E0284FD39C063E048
:100A10008FE092E00E942A04CBE4D6E4CE01019755
:100A2000F1F763E08FE092E00E942A042197F1F74A
:100A300063E08FE092E00E942A0483E592E0019750
:100A4000F1F762E08FE092E00E942A0480911E029A
:100A500080620E94AA0484E080931F028CE00E94BE
:100A6000AA0481E00E94AA048BE39FE10197F1F7B9
:100A700082E08093200286E0DF91CF910C94AA045B
:100A800080620E94AA048BE496E40197F1F78091BA
:100A90001E0280620E94AA0483E592E00197F1F7AA
:100AA00080911E0280620E94AA04D0CF41E00E9481
:100AB000570481E090E008954F925F926F927F9289
:100AC0008F929F92AF92BF92CF92DF92EF92FF925E
:100AD0000F931F93CF936B017C01742EAC019B018C
:100AE0000E946F0B882399F08EE191E0CF911F91C6
:100AF0000F91FF90EF90DF90CF90BF90AF909F90BD
:100B00008F907F906F905F904F900C94C30346013D
:100B10005701E894B7F82FEF3FEF4FE75FE7C501C4
:100B2000B4010E946F0B81110DC02FEF3FEF4FE713
:100B30005FE7C501B4010E94A50918161CF482E202
:100B400091E0D4CF2FEF3FEF4FE75FE4C701B6014D
:100B50000E94FD0A18161CF486E291E0C7CF2FEF21
:100B60003FEF4FE75FECC701B6010E94A50987FD83
:100B7000F3CF20E030E0A901C701B6010E94A5092A
:100B800010E000E087FF0CC041E06DE28FE092E0F2
:100B90000E945704F7FAF094F7F8F09401E010E09F
:100BA000C0E060E070E080E09FE37C1641F020E070
:100BB00030E040E251E40E94AA09CF5FF6CFA701DE
:100BC00096010E9439094B015C010E941C0A2B010D
:100BD0003C014AE00E94D003080F191FCC23C9F141
:100BE000C301B2010E944B0A9B01AC01C501B401D3
:100BF0000E9438094B015C0141E06EE28FE092E017
:100C00000E9457040F5F1F4FC15018F120E030E0E1
:100C100040E251E4C501B4010E94020B2B013C01EA
:100C20000E941C0A4B01B12CA12C4AE0C501B40161
:100C30000E94D003080F191FC501B4010E944B0A7E
:100C40009B01AC01C301B2010E9438094B015C0158
:100C5000DBCFC801CF911F910F91FF90EF90DF90F4
:100C6000CF90BF90AF909F908F907F906F905F904C
:100C70004F9008951F920F920FB60F9211242F9349
:100C80003F938F939F93AF93BF9380915B0190911C
:100C90005C01A0915D01B0915E013091560123E0AD
:100CA000230F2D3758F50196A11DB11D2093560134
:100CB00080935B0190935C01A0935D01B0935E0112
:100CC0008091570190915801A0915901B0915A011A
:100CD0000196A11DB11D8093570190935801A093D7
:100CE0005901B0935A01BF91AF919F918F913F915C
:100CF0002F910F900FBE0F901F90189526E8230F8D
:100D00000296A11DB11DD2CF1F920F920FB60F9266
:100D100011242F933F934F935F936F937F938F9300
:100D20009F93AF93BF93EF93FF938FE591E00E9462
:100D30000101FF91EF91BF91AF919F918F917F91B1
:100D40006F915F914F913F912F910F900FBE0F9038
:100D50001F9018951F920F920FB60F9211242F9388
:100D60008F939F93EF93FF93E0916F01F091700148
:100D70008081E0917501F091760182FD1BC0908128
:100D8000809178018F5F8F7320917901821741F0F4
:100D9000E0917801F0E0E15AFE4F958F8093780161
:100DA000FF91EF919F918F912F910F900FBE0F9018
:100DB0001F9018958081F4CFCF93EFE5F1E0138277
:100DC000128288EE93E0A0E0B0E084839583A6834E
:100DD000B78384E091E09183808385EC90E09587F0
:100DE000848784EC90E09787868780EC90E0918BF5
:100DF000808B81EC90E0938B828B82EC90E0958BE2
:100E0000848B86EC90E0978B868B118E128E138EDE
:100E1000148EEFE0F2E01382128286E191E091837A
:100E2000808388E084838FEF858389E086838AE0EE
:100E30008783CBE0C0878CE081878DE08287138633
:100E4000148615861686178681E00E94B004ACEFE2
:100E5000B1E082E015968C9315971696CC93169771
:100E6000E0EBF0E0E4911796EC931797ECE9F0E0F3
:100E7000E4911896EC93189740E85EE360E070E028
:100E80001D964D935D936D937C935097CF910895EC
:100E9000789484B5826084BD84B5816084BD85B555
:100EA000826085BD85B5816085BD80916E00816061
:100EB00080936E0010928100809181008260809307
:100EC0008100809181008160809381008091800009
:100ED0008160809380008091B10084608093B10034
:100EE0008091B00081608093B00080917A0084602E
:100EF00080937A0080917A00826080937A0080915A
:100F00007A00816080937A0080917A008068809373
:100F10007A001092C10082E00E94B00462E08091E9
:100F200001020E94FB012FB7F89480915B01909120
:100F30005C01A0915D01B0915E012FBF805D974083
:100F4000A109B1098093050290930602A0930702BC
:100F5000B093080287E380930E0262E083E00E9470
:100F6000FB01E1E0809122028111E0E0E195F0E0F7
:100F7000E15FFD4F848980680E94AA048AE291E0C3
:100F80000E94C3036CED75E080E090E00E94510286
:100F900081E00E94AA048BE39FE10197F1F741EB06
:100FA000242E40E0342E5DE9852E50E0952E60E041
:100FB000A62E60E0B62E0E948302882341F0809125
:100FC00002028C3009F462C048F48B3001F1C12C6C
:100FD000D12C20ECE22E2FE7F22E43C08551823037
:100FE000B0F7C091FE016C2F70E0762F6627662760
:100FF0007F778091FF01682B90E080E00E944B0A90
:101000002DEC3CEC4CEC5DE30E94020B5BC060916C
:10101000FE0170E090E080E00E944B0A6B017C01D1
:10102000C091FF01C7FF0AC0AC019B0160E070E006
:1010300080E89FEB0E9438096B017C01CF706C2F18
:1010400070E090E080E00E944D0A2DEC3CEC4CEC0E
:101050005DE30E94020BA70196010E9439096B0112
:101060007C010E948302882351F0809102028B3020
:1010700030F08D3080F18551823008F4E2C0412C8F
:10108000512C90EC692E9FE7792E43C0C091FE0150
:101090006C2F70E090E080E00E944B0A6B017C01B5
:1010A0006091FF016F7070E090E080E00E944D0A57
:1010B0002DEC3CEC4CEC5DE30E94020BA701960189
:1010C0000E9439096B017C01C7FFCBCFF7FAF0947E
:1010D000F7F8F094C6CF6091FD0170E090E080E0F9
:1010E0000E944D0A2DEC3CEC4CEC5DE30E94020B9F
:1010F0002B013C016091FC0170E090E080E00E94D7
:101100004D0A9B01AC01C301B2010E9439092B01B8
:101110003C0180E480937C0080917A00806480931D
:101120007A0080917A0086FDFCCFC0917800D09142
:101130007900EFE7F0E08491F1010491F40114915A
:10114000112309F490C081110E94A401E12FF0E065
:10115000EE0FFF1FE057FF4FA591B4918C9108232C
:1011600091E080E009F490E0092F182FE1E08091F0
:1011700022028111E0E0E195F0E0E15FFD4F84891A
:1011800080680E94AA0487E391E00E94C30340E0C4
:10119000C701B6010E945C058AE391E00E94C30387
:1011A0008DE391E00E94C30340E0C301B2010E94BD
:1011B0005C0580E491E00E94C303E0912202E230EA
:1011C00008F054C0E150F0E0E15FFD4F8489806891
:1011D0000E94AA0483E491E00E94C3036E01DD0F24
:1011E000EE08FF084AE0C701B601F7FE0EC041E075
:1011F0006DE28FE092E00E94570466277727CB01CB
:101200006C197D098E099F094AE00E94D00389E488
:1012100091E0012B11F08FE491E00E94C30360ED97
:1012200077E080E090E00E945102A114B10409F43B
:10123000C2CE0E949001882309F4BDCE0E94000016
:10124000BACE6091FC017091FD0176276727762761
:1012500090E080E00E944B0A2DEC3CEC4CEC5DE30E
:101260000E94020B54CF10E000E080CFE1E0ABCF52
:101270005058BB27AA270E9450090C94C30A0E9409
:10128000B50A38F00E94BC0A20F039F49F3F19F4E7
:1012900026F40C94B20A0EF4E095E7FB0C94AC0A29
:1012A000E92F0E94D40A58F3BA176207730784071C
:1012B000950720F079F4A6F50C94F60A0EF4E09563
:1012C0000B2EBA2FA02D0B01B90190010C01CA0100
:1012D000A0011124FF27591B99F0593F50F4503EAB
:1012E00068F11A16F040A22F232F342F4427585F9D
:1012F000F3CF469537952795A795F0405395C9F7B5
:101300007EF41F16BA0B620B730B840BBAF091506C
:10131000A1F0FF0FBB1F661F771F881FC2F70EC00B
:10132000BA0F621F731F841F48F4879577956795DE
:10133000B795F7959E3F08F0B0CF9395880F08F0CA
:101340009927EE0F9795879508950E94880A08F4CB
:1013500081E008950E94BE090C94C30A0E94BC0A51
:1013600058F00E94B50A40F029F45F3F29F00C9430
:10137000AC0A51110C94F70A0C94B20A0E94D40AD8
:1013800068F39923B1F3552391F3951B550BBB27B4
:10139000AA2762177307840738F09F5F5F4F220FF9
:1013A000331F441FAA1FA9F335D00E2E3AF0E0E8F0
:1013B00032D091505040E695001CCAF72BD0FE2F3A
:1013C00029D0660F771F881FBB1F261737074807CE
:1013D000AB07B0E809F0BB0B802DBF01FF27935886
:1013E0005F4F3AF09E3F510578F00C94AC0A0C9494
:1013F000F70A5F3FE4F3983ED4F3869577956795B7
:10140000B795F7959F5FC9F7880F911D96958795BA
:1014100097F90895E1E0660F771F881FBB1F6217D9
:1014200073078407BA0720F0621B730B840BBA0B97
:10143000EE1F88F7E09508950E94DC0A88F09F5718
:1014400098F0B92F9927B751B0F0E1F0660F771FE8
:10145000881F991F1AF0BA95C9F714C0B13091F0DE
:101460000E94F60AB1E008950C94F60A672F782FCF
:101470008827B85F39F0B93FCCF3869577956795A3
:10148000B395D9F73EF490958095709561957F4F0F
:101490008F4F9F4F0895E89409C097FB3EF49095B5
:1014A0008095709561957F4F8F4F9F4F9923A9F03D
:1014B000F92F96E9BB279395F695879577956795CC
:1014C000B795F111F8CFFAF4BB0F11F460FF1BC010
:1014D0006F5F7F4F8F4F9F4F16C0882311F096E9A3
:1014E00011C0772321F09EE8872F762F05C0662351
:1014F00071F096E8862F70E060E02AF09A95660F0A
:10150000771F881FDAF7880F9695879597F90895C2
:10151000990F0008550FAA0BE0E8FEEF1616170604
:10152000E807F907C0F012161306E407F50798F06C
:10153000621B730B840B950B39F40A2661F0232B85
:10154000242B252B21F408950A2609F4A140A69501
:101550008FEF811D811D089597F99F6780E870E0E6
:1015600060E008959FEF80EC089500240A94161619
:10157000170618060906089500240A941216130681
:10158000140605060895092E0394000C11F488230F
:1015900052F0BB0F40F4BF2B11F460FF04C06F5F2B
:1015A0007F4F8F4F9F4F089557FD9058440F551F01
:1015B00059F05F3F71F04795880F97FB991F61F0D5
:1015C0009F3F79F087950895121613061406551F4C
:1015D000F2CF4695F1DF08C0161617061806991FB8
:1015E000F1CF86957105610508940895E894BB27AD
:1015F00066277727CB0197F908950E94880A08F497
:101600008FEF08950E94150B0C94C30A0E94B50A2F
:1016100038F00E94BC0A20F0952311F00C94AC0A1B
:101620000C94B20A11240C94F70A0E94D40A70F3A5
:10163000959FC1F3950F50E0551F629FF001729F77
:10164000BB27F00DB11D639FAA27F00DB11DAA1F86
:10165000649F6627B00DA11D661F829F2227B00DD3
:10166000A11D621F739FB00DA11D621F839FA00D5E
:10167000611D221F749F3327A00D611D231F849FAE
:10168000600D211D822F762F6A2F11249F57504005
:101690009AF0F1F088234AF0EE0FFF1FBB1F661F80
:1016A000771F881F91505040A9F79E3F510580F049
:1016B0000C94AC0A0C94F70A5F3FE4F3983ED4F321
:1016C000869577956795B795F795E7959F5FC1F7ED
:1016D000FE2B880F911D9695879597F908950E9486
:1016E000880A880B990B0895A1E21A2EAA1BBB1B2E
:1016F000FD010DC0AA1FBB1FEE1FFF1FA217B307DE
:10170000E407F50720F0A21BB30BE40BF50B661FF3
:10171000771F881F991F1A9469F7609570958095B7
:1017200090959B01AC01BD01CF010895EE0FFF1F05
:101730000590F491E02D0994F894FFCF000000008B
:1017400023019203C4007001F500D300E7000000FC
:10175000000056059203C003BF036E616E00696E00
:1017600066006F76660041677269204D6F6E69741E
:101770006F7200543A00432000483A00252000537D
:101780006F696C3A002056696221002020202020D9
:02179000000057
:107E0000112484B714BE81FFF0D085E080938100F7
:107E100082E08093C00088E18093C10086E0809377
:107E2000C20080E18093C4008EE0C9D0259A86E02C
:107E300020E33CEF91E0309385002093840096BBD3
:107E4000B09BFECF1D9AA8958150A9F7CC24DD24C4
:107E500088248394B5E0AB2EA1E19A2EF3E0BF2EE7
:107E6000A2D0813461F49FD0082FAFD0023811F036
:107E7000013811F484E001C083E08DD089C08234E0
:107E800011F484E103C0853419F485E0A6D080C0E4
:107E9000853579F488D0E82EFF2485D0082F10E0AE
:107EA000102F00270E291F29000F111F8ED06801E7
:107EB0006FC0863521F484E090D080E0DECF843638
:107EC00009F040C070D06FD0082F6DD080E0C81688
:107ED00080E7D80618F4F601B7BEE895C0E0D1E017
:107EE00062D089930C17E1F7F0E0CF16F0E7DF06D8
:107EF00018F0F601B7BEE89568D007B600FCFDCFD4
:107F0000A601A0E0B1E02C9130E011968C91119780
:107F100090E0982F8827822B932B1296FA010C0160
:107F200087BEE89511244E5F5F4FF1E0A038BF0790
:107F300051F7F601A7BEE89507B600FCFDCF97BE46
:107F4000E89526C08437B1F42ED02DD0F82E2BD052
:107F50003CD0F601EF2C8F010F5F1F4F84911BD097
:107F6000EA94F801C1F70894C11CD11CFA94CF0C13
:107F7000D11C0EC0853739F428D08EE10CD085E9AC
:107F80000AD08FE07ACF813511F488E018D01DD067
:107F900080E101D065CF982F8091C00085FFFCCF94
:107FA0009093C60008958091C00087FFFCCF809118
:107FB000C00084FD01C0A8958091C6000895E0E648
:107FC000F0E098E1908380830895EDDF803219F02E
:107FD00088E0F5DFFFCF84E1DECF1F93182FE3DFCA
:107FE0001150E9F7F2DF1F91089580E0E8DFEE27F6
:047FF000FF270994CA
:027FFE00040479
:00000001FF
